:020000040800F2
:10000000280800200101000883200008151E0008B0
:10001000F11F0008750500085132000800000000BB
:10002000000000000000000000000000792100082E
:100030007705000800000000852000087B210008EB
:100040001B0100081B0100081B0100081B01000820
:100050001B0100081B010008CD0900081B01000856
:100060001B0100081B0100081B0100081B01000800
:100070001B0100081B0100081B0100081B010008F0
:100080001B0100081B0100081B0100081B010008E0
:100090001B0100081B0100081B0100081B010008D0
:1000A0001B0100081B0100081B0100081B010008C0
:1000B0000D2B00081B0100081B0100081B01000894
:1000C0001B0100081B0100081B0100081B010008A0
:1000D0001B010008453200081B0100081B01000835
:1000E0001B0100081B0100081B010008DFF80CD0F1
:1000F00000F0CEF8004800474939000828080020E1
:100100000648804706480047FEE7FEE7FEE7FEE7B1
:10011000FEE7FEE7FEE7FEE7FEE7FEE7CD2100088B
:10012000ED000008202A04DB203A21FA02F0002129
:10013000704721FA02F3D040C2F1200291400843F7
:10014000194670470649074A0868504343F2390286
:10015000104408604008704701490860704700007B
:100160005C0000206D4EC64140EA01039B0703D0AE
:1001700009E008C9121F08C0042AFAD203E011F8E6
:10018000013B00F8013B521EF9D27047D2B201E0A8
:1001900000F8012B491EFBD270470022F6E710B58C
:1001A00013460A4604461946FFF7F0FF204610BDE5
:1001B00030B505462A460B4612F8010B13F8014BE1
:1001C00008B1A042F8D01CB1002802D06D1CF1E7A4
:1001D000284630BD421C10F8011B0029FBD1801AB3
:1001E000704730B504460020034600E05B1C934294
:1001F00003D2E05CCD5C401BF8D030BD034611F863
:10020000012B00F8012B002AF9D11846704730B5B0
:1002100005460020034600E05B1C934205D2EC5CDF
:10022000C85C201A01D1002CF6D130BD2DE9F05F59
:100230000546002092469B46884606468146402455
:100240001BE02846414647462246FFF76BFF5346D0
:100250005A46C01A914110D311461846224600F062
:1002600029F82D1A67EB01084F462246012000218C
:1002700000F020F817EB00094E41201EA4F1010404
:10028000DFDC484631462A464346BDE8F09F000081
:10029000064C074D06E0E06840F0010394E80700D3
:1002A00098471034AC42F6D3FFF724FF383F0008DC
:1002B000583F0008202A04DB203A00FA02F100200F
:1002C00070479140C2F1200320FA03F31943904094
:1002D0007047000009480A4A4168491C4160914240
:1002E0000AD900224260074800F1320102E000BF53
:1002F00000F8012B8842FBD370470000000000206B
:10030000C02709006000002070B58EB0D0F806103C
:1003100000914389ADF80430C4692A490D94D0F89E
:1003200026200E78D5B2B54219D14E78C2F30725F2
:10033000B54214D18E78C2F30745B5420FD1CD78BE
:10034000120EAA420BD1027D002A08D1407D01285D
:1003500007D0022803D169460DA800F0B3F80EB00B
:1003600070BD009802900A901748ADF80C30ADF8B7
:100370002C30CDF82E400268CDF80E208288ADF8E2
:1003800012200268CDF81E208088ADF8220008688F
:1003900009904FF4C160ADF814004FF48070ADF8CF
:1003A00016000820ADF8180040F20640ADF81A001B
:1003B0004FF40070ADF81C002A2102A801F019FECC
:1003C000C9E7000017000020083A000800B51EA287
:1003D0008FB0D2E90012CDE90B1200210D910B9ADA
:1003E00000920891BDF83020BDF83410ADF804201B
:1003F000ADF824100068CDF8260015480168CDF846
:1004000006108188ADF80A100168CDF816108088B2
:10041000ADF81A000F480821006807904FF4C1603A
:10042000ADF80C004FF48070ADF8101040F20641AA
:10043000ADF80E00ADF81210ADF814002A21684690
:1004400001F0D7FD0FB000BDFFFFFFFFFFFF000071
:10045000083A00081700002070B504780F4A002100
:1004600001EB810312F81350AC4210D102EB4303AD
:1004700045785E78B5420AD185789E78B54206D136
:10048000C578DB789D4202D1491C48B270BD491C39
:100490000529E5DB4FF0FF3070BD00006000002053
:1004A00010B50C46FFF7D8FF401E054900EB800051
:1004B00001EB4000416821600089A08010BD000070
:1004C0006000002030B589B00C460546FFF7C4FF38
:1004D000401C2AD1A0780DF1100C63792279E178C3
:1004E0008CE80F00A87863782278E9788DE80F000F
:1004F0006B782A780EA11C4802F0ACFE1A4802F074
:10050000ABFC1A481A4A017801EB810302EB430263
:100510002B68136023685360491CA388C9B21381F8
:100520000170052901D10021017009B030BD000022
:100530004461206C75752069702025692E25692E0F
:1005400025692E2569203D20253032583A25303244
:10055000583A253032583A253032583A25303258F8
:100560003A253032580D0A00920000200000002089
:1005700060000020FEE7704770B50E4E0C46054641
:1005800000220221304600F08BFB3A2001F09EFD54
:1005900005E06D1EADB201F087FD04F8010B002DE2
:1005A000F7D1002020703046BDE8704001220221C2
:1005B00000F076BB000C014070B50A4D00F06004FD
:1005C000287884420CD003221F21A02000F000F9DB
:1005D00062092C70BDE870401F21802000F0F8B83F
:1005E00070BD00001C00002001A002F035BC00001E
:1005F0004B686F692074616F206D6F64756C652046
:10060000454E4332384A3630207468617420626146
:100610006920210D0A00000010B50446FFF7CCFF49
:100620002146BDE81040002000F004B800213A2027
:10063000AFF3008070B50D4E0C4605460022022136
:10064000304600F02DFB04F01F00284301F03EFD72
:10065000200601D501F028FD01F026FD0446012207
:100660000221304600F01CFB204670BD000C01400A
:100670002DE9F04107460E4600243920FFF7CCFF54
:10068000B8B31D4D0020698800F084F8FFF7CEFF55
:100690006880FFF7CBFF698841EA00206880FFF798
:1006A000C5FF0446FFF7C2FF44EA0020001F84B2E2
:1006B000B44200D93446FFF7B9FF0646FFF7B6FF4C
:1006C00046EA0020000601D4002403E03946204613
:1006D000FFF752FF6988481EB0F5406F01DB40F616
:1006E000FF310C2000F056F840221E21802000F03F
:1006F0006FF82046BDE8F0811C00002070B50C4664
:1007000005461F20FFF788FF0007FAD44FF4406129
:10071000022000F03FF804F5406081B2062000F0AE
:1007200039F8002211467A2000F052F82946204676
:1007300000F008F8BDE8704008221F21802000F07A
:1007400047B8000070B50C4E0C4605460022022149
:10075000304600F0A5FA7A2002E000BF14F8010B41
:1007600001F0B4FC6D1EADB2F8D23046BDE8704069
:100770000122022100F094BA000C014070B50C4631
:100780000546FFF719FF22462946BDE87040402084
:1007900000F01EB870B50D460446C9B2FFF7EEFF73
:1007A000290A641CE0B2BDE87040FFF7E7BF10B54E
:1007B0000C460146D420FFF7E1FF2146D620FFF783
:1007C000E9FFEA20FFF728FFC007FAD110BD0000BB
:1007D0002DE9F0410B4E17460C460546002202213A
:1007E000304600F05DFA04F01F00284301F06EFC73
:1007F000384601F06BFC3046BDE8F0410122022191
:1008000000F04EBA000C01402DE9FF41584C6060E9
:1008100058A002F021FB00221F21FF20FFF7D8FF84
:10082000022000F023F91D210020FFF703FF00281C
:10083000F9D00020FFF7F0FEFA2803D0BDE8FF4111
:10084000FFF7D2BE0020608001460820FFF7A2FF1C
:1008500040F6FF310A20FFF79DFF4FF4406104206E
:10086000FFF798FF41F2FF110620FFF793FF0021E9
:100870000C20FFF78FFF00210E20FFF78BFF0D21CB
:10088000C020FFF77BFF0021C120FFF777FF322256
:10089000C2218020FFF79CFF40F61241C620FFF7DF
:1008A00079FF1221C420FFF769FF40F2DC51CA2012
:1008B000FFF770FF0021E420FFF760FF0021E52033
:1008C000FFF75CFF2021E220FFF758FF0721E3201C
:1008D000FFF754FF1921E020FFF750FF9821E12096
:1008E000FFF74CFFE420FFF797FE8046E520FFF777
:1008F00093FE0646E220FFF78FFE0446E320FFF753
:100900008BFE0546E020FFF787FE0746E120FFF754
:1009100083FECDE90270334642461EA12A48CDE946
:10092000004502F097FC284802F096FA4FF48071D7
:100930001020FFF73CFF40F276411420FFF737FF0D
:100940001F20FFF739FEC0221B218020FFF740FF48
:1009500002217520FFF712FF012000F087F804B094
:100960000422BDE8F0411F218020FFF731BF0000C5
:100970001C00002044616E67206B686F6920746101
:100980006F20454E4332384A3630202E2E2E0D0A27
:10099000000000000D0A596F7572204D414320611F
:1009A000646472203D20253032583A253032583A5E
:1009B000253032583A253032583A253032583A25C7
:1009C0003032580D0A00000092000020012000F093
:1009D0006BB8000010B590F821100024022903D054
:1009E0000421816301243DE001680A6822F00E02BF
:1009F0000A6001680A6822F001020A601A4A016866
:100A0000914201D1012121E0174A1432914201D1D2
:100A100010211BE0144A2832914201D1891515E0BA
:100A2000114A3C32914201D189140FE00E4A5032F2
:100A3000914202D14FF4803108E00B4A6432914276
:100A400002D14FF4801101E04FF08071064A083A5C
:100A50005160012180F82110002180F82010416BA5
:100A600001B18847204610BD0800024070B5044619
:100A700000F01CF90546601C02D0044800780444CC
:100A800000F014F9401BA042FAD370BD4C000020C6
:100A900010B5012807D102F0B1FF002803D0BDE84E
:100AA000104001F0CFBA10BD044910B50A680242E7
:100AB00002D00860FFF7ECFF10BD000014040140F5
:100AC0002DE9F84FDFF8B891002409F1040A0AF182
:100AD000040B23460F270BF1040EC9E00125A540A6
:100AE0002A40AA427DD1674ED1F804C0ACEB06087B
:100AF000B44532D014DCBCF1030F3AD009DCBCF1B0
:100B0000000F2AD0BCF1010F1CD0BCF1020F31D173
:100B10001DE0BCF1110F17D0BCF1120F2AD119E062
:100B2000B8F5881F19D006DCB8F5803F15D0B8F5A8
:100B3000801F1FD111E0B8F5001F0ED0B8F5041FBB
:100B400018D10AE0CB6815E0CB681B1D12E0CB681A
:100B500008330FE0CB680C330CE08B682BB1012B12
:100B60004FF0080303D0456104E0042302E005616F
:100B700000E00023FF2A01D8064601E000F1040648
:100B80004FEA840501D9A5F12005D6F8008007FABF
:100B900005FC28EA0C0803FA05F548EA0508C6F83A
:100BA00000804D68ED0062D5374DAE6946F0010614
:100BB000AE61AD6924F0030605F001050095334DE3
:100BC00006EB050CDCF80850A607360F07FA06F806
:100BD00025EA0805DFF8B880404503D14FF000084A
:100BE00017E044E0DFF8AC80404502D14FF0010847
:100BF0000FE0DFF8A480404502D14FF0020808E082
:100C0000DFF89880404502D14FF0030801E04FF033
:100C1000040808FA06F848EA0508CCF808804D6888
:100C2000D9F80060ED034D4601D5164300E0964328
:100C30002E604D68DAF80060AD03554601D51643C5
:100C400000E096432E604D68DBF80060ED025D46E3
:100C500001D5164300E096432E604D68DEF8006033
:100C6000AD02754601D5164300E096432E60641C24
:100C70000D682A46E5407FF431AFBDE8F88F0000EB
:100C8000000401400000111000100240000001406B
:100C900000080140000C0140001001400014014018
:100CA0000AB1016170470904FBE700000148806850
:100CB000704700004C00002002488168027811440F
:100CC000816070474C000020074810B5016841F072
:100CD00010010160032000F075F8002000F006F814
:100CE00000F024F8002010BD0020024070B50D4D2A
:100CF00004464FF47A712878B1FBF0F00A4909688C
:100D0000B1FBF0F000F001FD48B9102C07D2002231
:100D10002146501E00F036F800206C6070BD0120A6
:100D200070BD00004C000020580000200C4808B5A1
:100D3000816941F001018161816901F00101009146
:100D4000C16941F08051C161C06900F080500090DC
:100D50000448416821F0E06141F00071416008BD44
:100D60000010024000000140002809DB00F01F02D3
:100D7000012191404009800000F1E020C0F80011FD
:100D800070470000F0B40E4B1B680C46C3F30223FF
:100D9000C3F10705042D00D90425191D072901D227
:100DA000002300E0DB1E012606FA05F1491E214062
:100DB00099409E40761E16403143F0BC02F05EBA68
:100DC0000CED00E0064900F0070208684FF6FF034B
:100DD000184040EA0220034A1043086070470000B0
:100DE0000CED00E00000FA052DE9F0470F46050084
:100DF00061D0434E306800F00700B84209D2306835
:100E000020F0070038433060306800F00700B84237
:100E100051D128683B4C810712D5400703D5606843
:100E200040F4E06060602878000703D5606840F413
:100E3000605060606068A96820F0F000084360605E
:100E40002878C00728D06868012810D021680228B7
:100E500010D0890700292EDA616821F003010143CF
:100E60006160FFF723FF804641F288390DE0216879
:100E70008903EFE78901EDE7FFF718FFA0EB080111
:100E8000494502D90320BDE8F0876068696800F031
:100E90000C00B0EB810FEFD1306800F00700B842D2
:100EA0000BD9306820F0070038433060306800F01C
:100EB0000700B84201D00120E5E72878400705D5B2
:100EC0006068E96820F4E060084360602878000703
:100ED00006D56068296920F4605040EAC10060606E
:100EE00000F038F86168084AC1F30311515CC8404A
:100EF0000649086006480068FFF7F8FE0020C2E7D0
:100F00000020024000100240203F0008580000204E
:100F1000500000200448054900684968044AC1F3AC
:100F20000221515CC8407047580000200010024068
:100F3000303F00080448054900684968044AC1F385
:100F4000C221515CC8407047580000200010024088
:100F5000303F000812A185B00FC98DE80F0014A022
:100F6000144A006804905168134801F00C03042BE4
:100F700010D0082B0ED1C1F38343C9031DF8030021
:100F80000AD5516804AAC1F34041515C0A4A504352
:100F9000B0FBF1F005B0704708494843FAE700009C
:100FA00002030405060708090A0B0C0D0E0F1010AA
:100FB000010200000010024000127A0000093D000A
:100FC0002DE9F84F040070D02078C04DC00749D0FB
:100FD0006868C0F38100012807D06868C0F3810009
:100FE000022809D16868C00306D52868800339D56E
:100FF00060680028E7D035E06068B0F5803F0BD02E
:1010000010B1B0F5A02F11D0286820F480302860EE
:10101000286820F4802002E0286840F480302860AE
:10102000606890B1FFF742FE06460AE0286840F487
:1010300080202860F0E700BFFFF738FE801B64289F
:1010400073D828688003F7D50CE0FFF72FFE06461B
:1010500005E000BFFFF72AFE801B6428F0D828684F
:101060008003F7D420789A4E80074FF001094FF0A3
:10107000000839D5686810F00C0F07D06868C0F315
:101080008100022809D16868C00306D42868800757
:1010900014D52069012808D110E02069B0B1C6F844
:1010A0000090FFF703FE074605E00AE1FFF7FEFDAB
:1010B000C01B0228C4D828688007F7D52868616952
:1010C00020F0F80040EAC10028600DE0C6F800807A
:1010D000FFF7ECFD074604E0FFF7E8FDC01B022820
:1010E00023D828688007F7D4207800072CD57948C2
:1010F000A169D9B1C0F80090FFF7D8FD074604E018
:10110000FFF7D4FDC01B02280FD8686A8007F7D507
:1011100071484FF4FA510068B0FBF1F0009000BF45
:101120000098411E0091FAD20EE080E0C0F80080E5
:10113000FFF7BCFD074604E0FFF7B8FDC01B02281F
:1011400075D8686A8007F7D42078400760D5E869C9
:101150000027C00008D4E86940F08050E861E869E1
:10116000012700F0805000905C480168C90513D445
:101170000168834641F480710160FFF797FD824664
:1011800006E000BFFFF792FDA0EB0A0064284ED8EE
:10119000DBF80000C005F5D5E06801280AD008B1E9
:1011A000052813D0286A20F001002862286A20F060
:1011B000040002E0286A40F001002862E06841F281
:1011C000883B98B1FFF772FD82460BE0286A40F039
:1011D00004002862EEE700BFFFF768FDA0EB0A01FC
:1011E00059455AD8286A8007F6D50CE0FFF75EFD0E
:1011F000824605E0FFF75AFDA0EB0A0159454CD89D
:10120000286A8007F6D41FB1E86920F08050E861B1
:10121000E06988B36968C1F38101022944D00228DA
:10122000C6F8608004D0FFF741FD044638E034E0A2
:10123000FFF73CFD074604E0FFF738FDC01B02281E
:101240002BD828688001F7D4206AB0F5803F05D1FB
:101250006868A16820F4003008436860D4E9080198
:101260000843696821F4741108436860C6F8609007
:10127000FFF71CFD044606E025E000BFFFF716FD62
:10128000001B022809D828688001F7D51BE000BFA1
:10129000FFF70CFD001B022802D90320BDE8F88FE0
:1012A00028688001F4D40EE00128F7D06868226A2B
:1012B00000F48031914204D1616A00F470108842D8
:1012C00001D00120EAE70020E8E70000001002401A
:1012D000000042428004424258000020007000405A
:1012E00070B5040005D00025A56294F8510010B136
:1012F00006E0012070BD84F85050204600F02EF822
:10130000022084F851002068016821F0400101604A
:10131000D4E901010843D4E9031211430843616988
:101320000843218B01F400710843E1690843216AF5
:101330000843A16A084321680860A069042101EA02
:101340001040216848602068C16921F40061C161D2
:101350006565012084F85100002070BD30B585B06E
:101360000024009401940294039400681449884274
:1013700023D11448816941F480518161816901F46C
:1013800080510491816941F00401816180690E4DB1
:1013900000F004000490A02000900220019003209F
:1013A000039069462846FFF78BFB4020CDE90004F7
:1013B000694628460294FFF783FB05B030BD000064
:1013C0000030014000100240000801402DE9F84FB4
:1013D000044690F8500000271D461646894601280D
:1013E0000DD04FF0010B84F850B0FFF75FFC804642
:1013F00094F85100BA46012804D002278EE002205A
:10140000BDE8F88FB9F1000F7DD0002E7BD003200E
:1014100084F85100C4F854A0C4F83090A686E6863B
:10142000C4F838A0A4F83CA0A4F83EA0C4F844A096
:10143000C4F840A0A068B0F5004F04D1206801684E
:1014400041F48041016020680168490603D40168C5
:1014500041F040010160E068B0F5006F606803D0C2
:1014600030B3012E24D040E008B1012E1CD1206BF6
:1014700021680088C86006E020688168890709D56E
:10148000216B0988C160206B801C2063E08E401EA8
:10149000E08609E0FFF70AFCA0EB0800A84202D3AF
:1014A000681C01D031E07DB3E08E0028E4D11FE05C
:1014B000206B21680078087306E02068816889073E
:1014C00009D5216B09780173206B401C2063E08EE5
:1014D000401EE08609E0FFF7E9FBA0EB0800A84208
:1014E00002D3681C01D010E075B1E08E0028E4D171
:1014F00042462946204600F0C6FD08B1202060651E
:10150000A06820B107E008E0FFE7032706E02068B5
:10151000C16880680090606D00B1012784F851B007
:1015200084F850A038466BE72DE9F84F044690F850
:10153000500000270A9E1D4692468B464FF0010937
:1015400001280ED0012084F85000FFF7AFFB804641
:1015500094F85100616801280CD0B1F5827F07D161
:1015600002E00220BDE8F88FA16809B9042801D083
:101570000227C2E0BBF1000F27D0BAF1000F24D040
:101580001DB394F85100042802D0052084F85100BE
:1015900000206065C4F838A0E587A587C4F830B09E
:1015A000E586A5862064606420680168490603D446
:1015B000016841F040010160E068B0F5006F6068CB
:1015C00005D0E8B3012D46D07FE0012795E008B1B2
:1015D000012D39D1206B21680088C860206B801CE8
:1015E0002063E08E401EE0862EE020688168890737
:1015F0000FD5E18E69B1B9F1010F0AD1216B0988CC
:10160000C160206B801C2063E08E401EE0864FF09E
:10161000000920688168C9070CD0E18F51B1C0680A
:10162000A16B0880A06B801CA063E08F401EE08748
:101630004FF00109FFF73AFBA0EB0800B04200E0D1
:1016400009E001D3701C50D1E08E0028CDD1E08F8D
:101650000028CAD13FE0206B216800780873206B16
:10166000401C2063E08E401EE0862EE020688168EA
:1016700089070FD5E18E69B1B9F1010F0AD1216B4C
:1016800009780173206B401C2063E08E401EE086C9
:101690004FF0000920688168C9070CD0E18F51B173
:1016A000C068A16B0870A06B401CA063E08F401E57
:1016B000E0874FF00109FFF7F9FAA0EB0800B0420C
:1016C00002D3701C01D010E07EB1E08E0028CDD195
:1016D000E08F0028CAD142463146204600F0D3FCB4
:1016E00028B101272020606507E0032705E0A068F6
:1016F00018B92068C16880680090012084F8510002
:10170000002084F8500038462CE710B5401EB0F198
:10171000807F01D3012010BD4FF0E02460610F21D4
:10172000601701F0ABFD0020A061072020610020C0
:1017300010BD7047704770B590F83C20012A19D051
:10174000012400F83C4F0222427050F83C3C5A6899
:101750009D6822F070060A684968324325F08005CA
:1017600029435A6050F83C2C91604470002101706C
:10177000084670BD022070BD10B5040003D094F877
:101780003D0010B107E0012010BD002084F83C00AE
:10179000204600F00DF8022084F83D00211D20684D
:1017A00001F0BAF9012084F83D00002010BD0000CE
:1017B00008B50068B0F1804F12D10A48C16941F004
:1017C0000101C161C069002200F0010000901146D2
:1017D0001C20FFF7D7FABDE808401C20FFF7C4BA69
:1017E00008BD0000001002400168CA6842F0010212
:1017F000CA600068816801F00701062903D001680A
:1018000041F0010101600020704770B5044690F876
:101810003C00012817D0012584F83C50022084F8B0
:101820003D002068826822F0770222F47F428260C5
:101830000868502830D00DDC20284DD005DC98B346
:1018400010283BD148E0022070BD302844D0402809
:1018500034D139E0602828D0702806D0B0F5805FF8
:101860002CD0B0F5005F29D10AE0CB68D1E9012185
:10187000206801F087F92068816841F0770109E06C
:10188000CB68D1E90121206801F07CF920688168EA
:1018900041F48041816011E0CA684968206801F024
:1018A00083F95021206807E016E0CA68496820687B
:1018B00001F08BF96021206801F06EF984F83D5049
:1018C000002084F83C0070BDCA684968206801F0B7
:1018D0006BF940212068EFE7226801461046EBE7EC
:1018E000704770B50446006801694FF00005C943B0
:1018F000890715D4C168C943890711D4E91E01615C
:1019000001202077206880698007204602D0FFF7F9
:10191000E7FF04E000F098F8204600F096F82577FD
:1019200020680169C943490717D4C168C9434907F9
:1019300013D46FF0040101610220207720688069D0
:1019400010F4407F204602D0FFF7CAFF04E000F009
:101950007BF8204600F079F8257720680169C943B3
:10196000090716D4C168C943090712D46FF00801EA
:101970000161042020772068C0698007204602D0DA
:10198000FFF7AEFF04E000F05FF8204600F05DF8DE
:10199000257720680169C943C90617D4C168C943BE
:1019A000C90613D46FF01001016108202077206868
:1019B000C06910F4407F204602D0FFF791FF04E099
:1019C00000F042F8204600F040F8257720680169D1
:1019D000C943C90708D1C168C943C90704D1891ED1
:1019E0000161204600F032F820680169C943090608
:1019F00009D4C168C943090605D46FF080010161AB
:101A00002046FFF796FE20680169C943490609D4BC
:101A1000C168C943490605D46FF040010161204601
:101A200000F01BF820680169C94389060BD4C1681E
:101A3000C943890607D46FF0200101612046BDE843
:101A40007040FFF777BE70BD704770470068B0F117
:101A5000804F01D1FEF73EBC7047704770470000D1
:101A600070B5026804461068D168536910F00F0F12
:101A700050D003F0010501F4907635435DD0C207E4
:101A800005D0CA0503D5E26B42F00102E2634207CA
:101A900005D5DA0703D0E26B42F00202E263820767
:101AA00005D5DA0703D0E26B42F00402E2630207D5
:101AB00005D5DA0703D0E26B42F00802E263E26B7D
:101AC000002A33D0800604D5880602D5204601F0CE
:101AD000A4F820684069E16BC0F38010090700D4C6
:101AE00028B3204601F08BF82068416949061AD5D1
:101AF000416921F040014161606BA0B11B49416324
:101B0000606BFEF767FF002810D0606B416BBDE88B
:101B100070400847830610D58B060ED52046BDE8D9
:101B2000704001F07AB82046FFF798FF70BD20465C
:101B3000FFF794FF0020E06370BD030606D50B0697
:101B400004D52046BDE8704001F00EB94006F3D53B
:101B50004806F1D5D168204621F04001D16020210E
:101B600084F8391000F013F970BD0000EF2B000865
:101B700070B5040004D094F83900002510B106E0D7
:101B8000012070BD84F83850204600F023F824204E
:101B900084F839002068C16821F40051C1602046F2
:101BA00001F086F82068016921F490410161206804
:101BB000416921F02A0141612068C16841F4005166
:101BC000C160E563202084F8390084F83A000020E1
:101BD00070BD000030B585B00024009401940294DB
:101BE00003940068184988422CD11848816941F44F
:101BF00080418161816901F480410491816941F0F2
:101C0000040181618069124D00F0040004904FF4DA
:101C1000007000900220019003200390694628463E
:101C2000FEF74EFF2815CDE90004694628460294C8
:101C3000FEF746FF002211462520FFF7A3F82520D6
:101C4000FFF792F805B030BD0038014000100240A7
:101C50000008014090F83A30202B22D1F9B1F2B1BE
:101C600090F83830012B1CD081628285C28500211A
:101C7000C163222280F83A2080F838100168CA68CF
:101C800042F48072CA6001684A6942F001024A6106
:101C90000068C16841F02001C16000207047012048
:101CA00070470220704700000848094B41780278CD
:101CB0005A54491CC9B24170632901D300214170B3
:101CC0000348012201494038FFF7C4BF4400002007
:101CD000C00300202DE9F843044690F839001F4660
:101CE00016460D46202850D1A5B19EB194F8380073
:101CF00001284AD0012084F838004FF00008C4F8C9
:101D00003C80212084F83900FEF7D0FFA68481466C
:101D1000E68426E00120BDE8F883E08C401EE084E4
:101D2000A0684B46B0F5805F4FF000024FF0800195
:101D30002046009703D001F048F8E8B90DE001F023
:101D400044F8C8B928882168C0F3080048602069B1
:101D500008B16D1C05E0AD1C03E0216815F8010B0E
:101D60004860E08C0028D8D14B4600224021204614
:101D7000009701F02AF808B10320CCE7202084F86E
:101D8000390084F838800020C5E70220C3E7704797
:101D90000148806870470000300000200E4A10B5EE
:101DA000536840F21254A34201D3012010BDA3F2A4
:101DB00012535B424FF4E574A34201D90C8000E05A
:101DC0000B80064B5468234403600888516808441C
:101DD0005060002010BD0000300000200E3A0008C6
:101DE00001480078704700003000002002480121BF
:101DF0000170002141607047300000200149886077
:101E00007047000030000020014908707047000052
:101E100030000020FEE700222239828489B222307D
:101E200005E030F8023B891E5BBA1A4489B20129E9
:101E3000F7D831B1007802EB002202E090B200EB5B
:101E40001242100CFAD1D1434FF6FF7000EA012084
:101E5000C1F307210843704770B504460D46D0F81A
:101E6000062040892168C4F80610A188618122609B
:101E7000A080D4F81A00D4F81E10C4F81A10C4F8C0
:101E80001E00002084F8220029462046FFF7C3FFE9
:101E9000A08429462046BDE8704000F0AAB80000A2
:101EA00070B50D460446042208491E30FEF799F924
:101EB000002809D194F82200082805D12946204697
:101EC000BDE87040FFF7C8BF70BD000017000020DC
:101ED00030B585B0002000900190029003901E481C
:101EE000816941F020018161816901F02001049143
:101EF000816941F004018161816901F0040104916B
:101F0000816941F0080181618069144D00F0080089
:101F10000490012202212846FEF7C2FE0124104847
:101F20006946CDE9004028460294FEF7C9FD02202B
:101F3000CDE900040320CDE9024069462846FEF7BA
:101F4000BFFD002211460620FEF71CFF0620FEF70B
:101F50000BFF05B030BD000000100240000C014036
:101F6000000021100C480B494FF4007201604FF43F
:101F70008271416000218160C1600161C0E9051288
:101F80001022C0E90721416281620A21C162FFF784
:101F9000A7B9000000300140E802002010B586B06B
:101FA00000241248009401940294039404944FF086
:101FB00080410594016041F61F41C0E9011442F2DD
:101FC0001071C0E903148461FFF7D6FB4FF4805011
:101FD000009069460548FFF718FC049404A90348DB
:101FE0000594FFF7A8FB06B010BD000040030020D9
:101FF000FEE7FEF783BBC27D012A05D0112A05D07A
:10200000062A05D100F010BBFFF74ABF00F05ABF07
:1020100070470021142230F8023B921E5BBA120472
:102020001944120CF7D102E088B200EB1141080C00
:10203000FAD1C9434FF6FF7000EA0120C1F307212E
:102040000843704710B54FF4007421460448FEF76A
:102050000FFB010003D0024800F004F8F5E710BDC3
:10206000CE000020027B082A0AD1427B062A03D038
:10207000002A05D1FFF7BFBF292901D9FEF744B9CE
:1020800070477047704738B50B46009204460022EF
:10209000802100F027F8002804D0606D40F0200077
:1020A0006065032038BD00000EB5FF208DF80400E8
:1020B0000A2000900448012302AA01A94068FFF702
:1020C00033FA9DF808000EBD1C00002001B504483D
:1020D0000A23012269464068FFF778F908BD00002D
:1020E0001C0000202DE9F0411D4617460E4604460F
:1020F000DDF8188008E0681C06D0FEF7D7FDA0EBDD
:102100000800A8420BD255B12068806836EA00006A
:1021100030D00020B842EED10020BDE8F081206828
:10212000416821F0E00141606068B0F5827F0BD129
:10213000A068B0F5004F02D0B0F5806F04D12068E0
:10214000016821F040010160A06AB0F5005F09D18B
:102150002068016821F4005101602068016841F4A1
:1021600000510160012084F85100002084F85000E3
:102170000320D2E70120CDE77047FEF79DBD30B5C3
:102180008FB028216846FEF708F814210AA8FEF748
:1021900004F801210804CDE900100024029402256E
:1021A0000491CDE907504FF4E01009906846FEF71E
:1021B00007FF0F20CDE90A056802CDE90C40022196
:1021C0000AA80E94FEF710FE0FB030BD0D4801684E
:1021D00041F00101016041680B4A11404160016812
:1021E0000A4A11400160016821F4802101604168C0
:1021F00021F4FE0141604FF41F0181600449C003D6
:1022000008607047001002400000FFF8FFFFF6FE74
:1022100008ED00E02DE9F047194C82461D46207A72
:102220001746894602281AD0FDF78CFF206041F23C
:10223000883842464946504600F0FAFBA8B1FEF7FE
:1022400035FD0646207A022814D0FEF72FFD801BAC
:10225000B842F7D96D1E6DB2EBD20AA006E00FA00E
:1022600000F0FAFD0220BDE8F08711A000F0F4FDB7
:102270000020F8E714A000F0EFFD0120F3E70000D4
:10228000CE0200204B6574206E6F69207468617403
:102290002062616920320D0A000000004461206B59
:1022A0006574206E6F6920726F6920210D0A00002D
:1022B0004B6574206E6F6920746861742062616977
:1022C0002031200D0A0000004B6574206E6F6920DC
:1022D0007468616E6820636F6E670D0A000000000D
:1022E000018A49BA0C398AB2911E1A3006E000BF41
:1022F00030F8023B921E5BBA194492B2012AF7D819
:1023000032B1007801EB002102E088B200EB11410C
:10231000080CFAD1C9434FF6FF7000EA0120C1F35F
:1023200007210843704700002DE9F05F0446BA4DCD
:10233000BA4B00204FF47F474FF47F0C4FF0807171
:1023400004F10E06F2B34FF01008012A7DD0052AE1
:102350007BD04FF4205B4FF0500E022A73D0B0496F
:1023600008268027D1F80DC04FF045084FF0400AED
:102370004FF00609042A67D0032A7DD0062A7CD1B3
:1023800044F802CBB1F8112062802A686260AA8802
:10239000228166811A68A261D1F81320E26184F873
:1023A0000C80607344F270422282A4F812A0277558
:1023B00084F81590E082A4F80EB0B1F80B2052BA60
:1023C000228400E012E0B1F8092052BA628451F888
:1023D000032B12BA6262D1F8011009BAA16284F823
:1023E0002CE04CF60121E185208663E0D4F806203C
:1023F00044F8022B228962802A686260AA882281BE
:10240000E082A269E2611A68A261228C638C238453
:102410006284626A13BA5B1C07EA132513BA5B1C59
:1024200045EA136315BA6D1C0CEA052512BA2B4355
:1024300001EB02610B43A3627A496162122184F8C5
:102440002D102DE001E038E06EE0D4F8062044F8CD
:10245000022B228962802A686260AA882281E08237
:10246000A269E2611A68A261228C638C238462846F
:10247000626AA36A15BA01E09EE01CE06D1C07EADF
:10248000152517BA7F1C45EA176517BA7F1C0CEA99
:10249000072712BA3D4301EB02610D43A5623FE0FD
:1024A000208660863046FFF7B4FDE082A41E2046F9
:1024B000FFF716FF6086BDE8F09F218A94F82E2072
:1024C00049BAA1EB9201D4F8062044F8022B143942
:1024D000228962802A686260AA882281E082A4F848
:1024E0000EB084F82CE0A269E2611A68A261228C25
:1024F000638C23846284626A89B215BA0D4407EA48
:10250000152517BA0F4445EA176517BA0F440CEAA8
:10251000072712BA3D431144A36A45EA0161A1624B
:10252000636284F82D80BBE744F804CBB1F8112036
:1025300024F8022B2A6844F8042BAA8824F8182BC4
:102540004FF4505224F8166C04F8148C04F8130C51
:1025500024F8122C4BF62B7224F8102C24F80EAC15
:1025600004F80C7C04F80B9C24F80A0C1A6844F854
:10257000082C4FF45862A1F80B2052BA2280096847
:10258000202209BA6160A060277302216173E28191
:10259000208260822175042262750520A075B42016
:1025A000E0750120207603236376A376E676207714
:1025B0006077A277E1777EE744F802CBB1F811208B
:1025C00062802A686260AA882281668184F80C8011
:1025D0006073A4F80EB044F270422282A4F812A0F4
:1025E000277584F81590E0821A68A261B1F80B2073
:1025F00052BA2284B1F8092052BA62840A6812BA27
:102600006262496809BAA16284F82CE0112184F859
:102610002D108902E7E60000083A000817000020A4
:10262000CE020020001F9DBE2DE9FC4700268946F2
:1026300004460096ADF8046004226F491E30FDF791
:10264000D0FD002869D194F82F0002276B4D122885
:102650001ED1287A012801D002285ED1D4F82A00A0
:1026600001BA2868401C814257D12860D4F826005E
:10267000052200BA401C68602F7249462046FFF7C9
:1026800053FE49462046FFF7B4FC5DA000F0E4FB92
:1026900094F82F0002280BD04FF0110810280DD00D
:1026A000112841D0182838D1287A02285ED061E05C
:1026B000002249462046FFF737FE30E0287A0328FB
:1026C00008D1D4F82A0000BA2860D4F8260000BA4D
:1026D00068602F72FFF784FB01281ED1FFF758FBBB
:1026E000D4F82610884218D1022249462046FFF726
:1026F0001BFE01A96846FFF751FB18B10020FFF748
:1027000083FB2BE0BDF8043049462046009A00F0D8
:1027100003F9D4F82A00FFF771FBBDE8FC874946AE
:102720002046FFF766FCF8E7D4F82A1028680ABAB2
:10273000824202D12E7236A005E009BA401C8142C5
:1027400003D12E7239A000F087FB012249462046B2
:10275000FFF7EAFD49462046FFF74BFC84F82F803F
:1027600066862046FFF7BCFD6086D8E749462046CE
:1027700000F08EF804F1360033A10546FDF718FD90
:1027800008BB33A12846FDF713FDE0B932A1284666
:10279000FDF70EFDB8B932A12846FDF709FD90B945
:1027A00031A12846FDF704FD68B931A12846FDF79F
:1027B000FFFC40B930A12846FDF7FAFC18B930A15A
:1027C0002846FDF7F5FC05222FA12846FDF71FFD41
:1027D0000028A2D1FFF704FB01289ED0FFF706FBDB
:1027E000022249462046FFF79FFD01A96846FFF7F0
:1027F000D5FA002886D090E717000020CE020020EE
:10280000436F6E6E656374204F4B0D0A000000002D
:10281000536572766572206461206E676174206B07
:102820006574206E6F6920210D0A00004461206EDE
:10283000676174206B6574206E6F692053657276D2
:102840006572210D0A000000626174310000000011
:102850007461743100000000626174320000000095
:102860007461743200000000626174330000000083
:102870007461743300000000626174340000000071
:102880007461743400000000474554202F0000009C
:102890002DE9F0470446D0F82600DFF87480894619
:1028A00001BAD8F8040081422FD1208A41BA94F8A5
:1028B0002E00A1EB900114398EB26FF0130101EBE1
:1028C000900087B2002507E0E819204490F8360010
:1028D00000F0B4FA6D1CADB2B542F5D30222494600
:1028E0002046FFF721FDD4F82600002301BAC8F8DE
:1028F0000010D4F82A10204609BAC8F80410BDE820
:10290000F04704A2362100F007B8BDE8F0870000C8
:10291000CE0200200000000070B50446002005E053
:10292000155C2618401C86F8365080B29842F7D3C2
:10293000C81885B2208A41BA194440BAC1F30721A8
:10294000184441EA0020208200202083608618205D
:1029500084F82F0004F10E00FFF75BFB2083204674
:10296000FFF7BEFC608629462046BDE87040FFF7B1
:1029700040BB00002DE9F0411C4C07461A4D207A5F
:1029800090460E46022805D019A000F065FA0220F4
:10299000BDE8F081002001F027F80622002128463A
:1029A000FFF7C2FC33463A4636212846FFF7B4FF0C
:1029B000FEF77CF9054603202072012001F014F88F
:1029C000207A02280BD0FEF771F9411B4145F7D957
:1029D000022020720BA000F03FFA0020D8E70FA0E1
:1029E00000F03AFA0120D3E7CE000020CE0200200A
:1029F0004B686F6E6720636F206B6574206E6F6924
:102A00000D0A0000477569206475206C69657520A2
:102A100074686174206261690D0A0000477569205D
:102A20007468616E6820636F6E670D0A00000000B5
:102A30002DE9FE4304460078294D002690460F46B6
:102A4000C0280BD16078A82808D12046FDF704FDE6
:102A5000401C3AD023492046FDF722FD21480121A0
:102A60000D380172A0F809702168C0F81310002019
:102A700000F0BAFF042242212846FFF755FC2068E7
:102A8000C5F81E0078BAA88405F10E00FFF7C1FA58
:102A900028832846FFF724FC6886E078A178CDE9F2
:102AA00000100297637822780FA1174800F0D2FB3C
:102AB000154800F0D1F942212846FFF79AFA012083
:102AC00000F092FF0120BDE8FE832046FDF77EFC6A
:102AD0003220FDF7CBFF32364645B6D30020F2E771
:102AE000CE000020DB020020436F6E6E6563742011
:102AF000746F2025692E25692E25692E25693A25B2
:102B000069202E2E2E0D0A00920000200148FEF7AB
:102B1000E8BE000040030020F0B50268164B174CD9
:102B2000174D4FF08047984205D0B84203D0A042DD
:102B300001D0A84203D122F070064A68324398427D
:102B400005D0B84203D0A04201D0A84203D122F45C
:102B50004074CA6822434C6922F08002224302601A
:102B60008A68C2620A688262984201D10969016377
:102B700001214161F0BD0000002C01400004004033
:102B80000008004010B5846842EA032224F47F4420
:102B90000A432243826010BD826822F070020A4319
:102BA00042F007018160704710B5036A046A24F09F
:102BB00001040462846924F0F00444EA021423F05E
:102BC0000A020A438461026210BD10B5036A23F051
:102BD000100303628369046A23F4704343EA0232F8
:102BE00024F0A00343EA01118261016210BD10B517
:102BF000406A0021C185C184FEF730FF10BD016825
:102C0000CA6822F49072CA6001684A6922F001021F
:102C10004A61202180F83A10704710B590F83A10B8
:102C2000222901D0022010BD8168B1F5805F11D04A
:102C30000169002901681FD0496801F07F03816A9A
:102C40004A1C82620B70C18D491E0904090CC185A2
:102C500018D02BE00269816A002A0268526805D008
:102C6000D2B20A80816A491C8162ECE7C2F3080291
:102C70000A80816A891CF7E74A68816A4B1C836273
:102C80000A70E0E70168CA6822F02002CA600168A1
:102C9000CA6822F48072CA6001684A6922F001029F
:102CA0004A61202180F83A10FEF7FEFF002010BD97
:102CB0002DE9F041044600680169E26821F44051C1
:102CC000114301612169A0680843616908432168D3
:102CD000CA6841F20C639A430243CA6020684169A2
:102CE000A26921F44071114341611E4920686425A5
:102CF0003226884202D1FEF71DF901E0FEF70AF9FB
:102D000000EBC00101EB001160686FF01807800054
:102D1000B1FBF0F2B2FBF5F2B1FBF0F37A4303EB57
:102D20008202B1FBF0F306EB0212B2FBF5F2B3FB49
:102D3000F5F302F0F00202EB0312B1FBF0F3B1FB8A
:102D4000F0F0B0FBF5F0784303EB800006EB0010E9
:102D5000B0FBF5F0216800F00F0010448860BDE87A
:102D6000F08100000038014090F83910212901D08D
:102D7000022070478168B1F5805F016A0BD04A1C60
:102D80000262026809785160C18C491E0904090C6D
:102D9000C1840ED017E009880268C1F308015160B0
:102DA00001690029016A02D0491C0162ECE7891C13
:102DB000FBE70168CA6822F08002CA600068C16847
:102DC00041F04001C160002070472DE9F041984674
:102DD00017460E460446069D1DE0681C1BD02DB10B
:102DE000FDF764FFA0EB0800A84214D92068C16871
:102DF00021F4D071C1602068416921F00101416175
:102E0000202084F8390084F83A00002084F8380043
:102E10000320BDE8F0812068006836EA000004D095
:102E20000020B842D9D00020F3E70120F9E70000E4
:102E300001490860704700004000002008B50A23DF
:102E40008DF800000348012269460068FEF742FF42
:102E500008BD00004000002010B50446FDF7BAF997
:102E600082B20448214664230068BDE81040FEF7A2
:102E700031BF00004000002000210185C18C49BA0B
:102E800008318AB202F109011A3005E030F8023B3C
:102E9000921E5BBA194492B2012AF7D832B1007877
:102EA00001EB002102E088B200EB1141080CFAD1DD
:102EB000C9434FF6FF7000EA0120C1F30721084320
:102EC000704700002DE9F041044606223A49FDF71B
:102ED00088F900286DD194F82A0004F11A0504F14C
:102EE0002A06022813D004223449281DFDF779F957
:102EF00000285ED132A130463746FDF759F94FF42C
:102F00007A7658B1608C334641BA2FA24CE02A46FB
:102F1000A11D3046BDE8F04100F09CBC2EA1384612
:102F2000FDF746F920B1608C334641BA2CA23BE054
:102F30002FA13846FDF73CF920B1608C334641BAE9
:102F40002DA231E030A13846FDF732F920B1608C76
:102F5000334641BA2EA227E031A13846FDF728F9C1
:102F600020B1608C334641BA2FA21DE032A1384611
:102F7000FDF71EF920B1608C334641BA30A213E050
:102F800033A13846FDF714F920B1608C334641BABD
:102F900031A209E034A13846FDF70AF9002808D02B
:102FA000608C334641BA32A22846BDE8F04100F0B9
:102FB00067B8BDE8F0810000083A0008170000205B
:102FC0004C4544313D4F4E00446120626174204CB9
:102FD0004544310D0A0000004C4544313D4F460048
:102FE000446120746174204C4544310D0A00000096
:102FF0004C4544323D4F4E00446120626174204C88
:103000004544320D0A0000004C4544323D4F460015
:10301000446120746174204C4544320D0A00000064
:103020004C4544333D4F4E00446120626174204C56
:103030004544330D0A0000004C4544333D4F4600E3
:10304000446120746174204C4544330D0A00000033
:103050004C4544343D4F4E00446120626174204C25
:103060004544340D0A0000004C4544343D4F4600B1
:10307000446120746174204C4544340D0A00000002
:103080002DE9F04380468BB01F460E469146002541
:103090001046FDF79FF884B24046FDF7DDF9401C6D
:1030A0005DD069464046FDF7FBF9344800250168CC
:1030B000CDF806108088ADF80A000820ADF80C00A5
:1030C00045208DF80E0004F11C00C0F3072141EAF1
:1030D0000020ADF8100042F21110ADF81200ADF86A
:1030E000145080208DF8160011208DF81700244808
:1030F0008DF80F50ADF818500068CDF81A00D8F8C8
:103100000000CDF81E000DF10E00FEF782FFADF8B5
:10311000180043F65160ADF8220070BAADF82400F3
:103120000834C4F3072040EA0420ADF82600ADF8C7
:10313000285049460DF12A00FDF760F86846FFF770
:103140009BFEADF82800BDF8260040BA223081B2BF
:103150006846FEF74EFF01200BB0BDE8F083404605
:10316000FDF734F93220FDF781FC3235BD4293D3AF
:1031700004A0FFF771FE0020EEE70000083A000807
:1031800017000020436875612067756920676F69C3
:103190002074696E207564700D0A00002DE9F047F7
:1031A00008AC174694E80403254C0B9D066826607E
:1031B0008088A0801868C4F806009888608108207C
:1031C000A0814520A07305F11C000026C0F3072351
:1031D000E67343EA0020208242F211106082A68248
:1031E0008020A0751120E07526831068C4F81A00AD
:1031F0000868C4F81E0004F10E00FEF70AFF2083E1
:1032000098FA98F0608478BAA08405F10800C0F3B9
:10321000072141EA0020E08426852A46494604F138
:103220002A00FCF7A1FF2046FFF726FE2085E08C50
:1032300040BA223081B22046BDE8F047FEF7D9BE41
:10324000CE0000200148FEF70BBC000080030020E8
:10325000FEE700000FB4084B10B504A902AA0398BA
:1032600000F02CF8044602A9002000F058FA20468D
:1032700010BC5DF814FB00001F3700080907090E99
:10328000002804DB00F1E02080F80014704700F013
:103290000F0000F1E02080F8141D704702E008C81C
:1032A000121F08C1002AFAD170477047002001E0C0
:1032B00001C1121F002AFBD1704700002DE9FF4F0A
:1032C0008DB00F460546002606E025280BD0DDE927
:1032D0000F1290476D1C761C28780028F5D111B08C
:1032E0003046BDE8F08F0024A246A1460122EC49F9
:1032F00000E0044315F8013F203B02FA03F00842C6
:10330000F7D128782A2810D06FF02F022878A0F162
:103310003001092914D80AEB8A0102EB410144F07B
:10332000020400EB010A6D1CF0E701CF5FEA000A1E
:1033300003D544F40054CAF1000A44F002046D1CA1
:1033400028782E2817D115F8010F44F004042A28F4
:103350000ED06FF02F022878A0F1300109290AD889
:1033600009EB890102EB410100EB01096D1CF2E759
:1033700057F8049B6D1C28786C280FD006DC4C286D
:1033800017D068280DD06A2814D104E0742810D012
:103390007A280FD10DE044F400140AE044F48014BC
:1033A00001E044F440146978814202D104F58014AC
:1033B0006D1C6D1C2A786E2A1FD00CDC632A31D05C
:1033C00004DC002A8BD0582A11D1A3E0642A68D0EB
:1033D000692A0CD165E0732A2ED004DC6F2A73D0E1
:1033E000702A04D19BE0752A6FD0782A6ED01046DF
:1033F000DDE90F129047761C50E1C4F30250022819
:1034000006D0032809D0042801CF09D0066045E181
:1034100001CFF117C0E9006140E101CF06803DE135
:1034200006703BE117F8040B8DF8000000208DF8C2
:103430000100EB46012003E057F804BB4FF0FF30DA
:1034400061074FF0000102D40DE008F10101884648
:1034500049450FDA8045F8DB1BF808100029F4D144
:1034600008E008F1010188468142FADB1BF80810E8
:103470000029F6D1DDE90F23AAEB08008146214699
:1034800000F036F9304400EB080604E0DDE90F12E5
:103490001BF8010B9047B8F10108F7D221464846C6
:1034A000F7E00A21C4F302534FF0000B0891022BFE
:1034B00004D001CFC117032B09D00AE0FF1D27F06C
:1034C0000707F7E8020108E032E01FE020E000B261
:1034D000C117042B01D140B2C117031E71F10003C3
:1034E00007DA4FF0000CD0EB0C006CEB01012D2340
:1034F00002E0230504D52B238DF82430012303E0BB
:10350000E30701D02023F7E7984658E00A2110E0AE
:1035100010210EE010204FF0000B08900CE010215D
:103520004FF0000B44F004044FF00809089103E049
:1035300008214FF0000B0891C4F30253022B04D072
:1035400001CF0021032B06D006E0FF1D27F007075F
:10355000F7E8020103E080B2042B00D1C0B24FF0C3
:10356000000823072BD5702A07D0DDF820C08CF087
:10357000100C5CEA0B0C05D00EE040238DF82430D3
:10358000012308E050EA010306D030238DF82430EF
:103590008DF8252002239846DDF820C08CF0080C19
:1035A0005CEA0B0C0BD150EA010301D1630706D58D
:1035B00030238DF824304FF00108A9F10109582A71
:1035C00004D038A20B9208AA0A920BE03AA2F9E7BB
:1035D0005B46089AFCF72AFE0B9B9B5C0A9A521EDC
:1035E0000A92137050EA0102F2D10A98ADEB000082
:1035F00000F1200B600702D524F4803401E04FF085
:103600000109D94502DDA9EB0B0000E0002000EB29
:103610000B0141440890AAEB010AE00306D4DDE95E
:103620000F232146504600F063F806444FF000098E
:1036300008E009A911F80900DDE90F12904709F126
:103640000109761CC145F4DBE0030CD5DDE90F234D
:103650002146504600F04CF8064404E0DDE90F1224
:1036600030209047761C0899481E08900029F5DC08
:1036700008E00A980A990078491C0A91DDE90F12BE
:103680009047761CBBF10001ABF1010BF1DC214648
:103690005046DDE90F2300F019F806446D1C1BE6C7
:1036A0000928010030313233343536373839616218
:1036B00063646566000000003031323334353637DC
:1036C0003839414243444546000000002DE9F041AD
:1036D000044600251E461746880404D405E03946F2
:1036E0002020B0476D1C641EF9D52846BDE8F08146
:1036F0002DE9F041044600251E469046C80301D539
:10370000302700E02027880404D505E041463846EC
:10371000B0476D1C641EF9D52846BDE8F0810A68E3
:10372000531C0B60107070470020044A014611546E
:10373000401C6328FBDB024841707047C003002037
:103740004400002070B5C8B0012300203D498DF829
:103750001030062405918DF811303B498DF8124048
:10376000ADF818008DF81300ADF81A00D1F801106B
:10377000364D0791089109910A9129680B91A98802
:10378000ADF83010002204A98E18521C92B286F8AF
:1037900022000A2AF8D300228E18521C92B286F810
:1037A0002C00402AF8D300228E18521C92B286F8C0
:1037B0006C00802AF8D326483F9040F23510ADF8CF
:1037C00000018DF8023140F23D70ADF803018DF833
:1037D00005312868CDF80601A888ADF80A0140F245
:1037E0000C50ADF80C0149208DF80E014F208DF8DA
:1037F0000F0154208DF8100134208DF8110137206D
:103800008DF812018DF8153140F23730ADF8130103
:1038100003208DF81601FF208DF8180140F20910E1
:10382000094BCDE9021044225B1CCDE90032064968
:103830008DF81741491D054B4322081DFFF7AEFCCB
:1038400048B070BD2007199908000020083A000808
:10385000638253637FB51F4B1C78002C39D1012440
:103860001C701D4E00691D4D306010681C4C286096
:10387000086820608888A080F178B078CDE90001E0
:103880007378327817A11D48FFF7E4FC1B48FFF757
:10389000E3FAE978A878CDE900016B782A7818A1D5
:1038A0001648FFF7D7FC1548FFF7D6FAA0786379DA
:1038B0002279E1788DE80F006378227817A10F480C
:1038C000FFF7C8FC0D48FFF7C7FABDE87F40FFF7D8
:1038D00039BF7FBD08000020170000202400002011
:1038E00028000020596F75722049503A25692E250D
:1038F000692E25692E25690D0A000000920000201E
:10390000476174655761792049503A25692E2569C8
:103910002E25692E25690D0A000000004761746597
:10392000576179204D41433A253032583A2530329B
:10393000583A253032583A253032583A25303258E4
:103940003A253032580D0A00FDF7BEF9FEF717FC94
:10395000FEF7BEFAFEF706FB214820490C22016063
:103960004FF41651416000218160C160C0E904122A
:103970008161C161FEF7FCF8FEF710FB1848FFF704
:1039800057FA17489838FCF73FFF15484038FDF7BD
:103990002BFF012213491248FEF75CF9114841F24E
:1039A0008834012322465021801CFEF733FC98B155
:1039B0000C4D68780028FCD03220FDF757F80848F5
:1039C0004030FCF707FC81B2054822464030FEF744
:1039D000D1FFFFF7A9FEECE7FEE700000038014049
:1039E000800300204400002003490028087001D013
:1039F000FEF728BB704700003C000020014800781B
:103A0000704700003C00002000002007199848542F
:103A100054502F312E3120323030204F4B0A436F1B
:103A20006E74656E742D547970653A20746578747F
:103A30002F68746D6C0A0A3C21444F435459504519
:103A40002068746D6C3E0A3C68746D6C3E0A3C687C
:103A50006561643E0A09203C6D6574612068747478
:103A6000702D65717569763D22436F6E74656E7455
:103A70002D547970652220636F6E74656E743D22DB
:103A8000746578742F68746D6C3B20636861727321
:103A900065743D7574662D38223E0A093C7469745C
:103AA0006C653EC49069E1BB8175206B6869E1BBC0
:103AB000836E20746869E1BABF742062E1BB8B3CFD
:103AC0002F7469746C653E0A093C6D657461206EE3
:103AD000616D653D2276696577706F72742220632F
:103AE0006F6E74656E743D2277696474683D6465B9
:103AF000766963652D77696474682C20696E6974D2
:103B000069616C2D7363616C653D31223E0A093C2D
:103B10007374796C653E0A09092E627B7769647457
:103B2000683A2031303070783B6865696768743A6C
:103B300020343070783B666F6E742D73697A653A05
:103B400020323170783B636F6C6F723A20234646A7
:103B5000463B6261636B67726F756E642D636F6C59
:103B60006F723A233463616635303B626F7264650D
:103B7000722D7261646975733A20313070783B7DC3
:103B80000A09092E747B77696474683A20313030F1
:103B900070783B6865696768743A20343070783BA8
:103BA000666F6E742D73697A653A20323170783B96
:103BB000636F6C6F723A20234646463B6261636BCB
:103BC00067726F756E642D636F6C6F723A23663423
:103BD000343333363B626F726465722D726164698F
:103BE00075733A20313070783B7D0A093C2F73742D
:103BF000796C653E0A3C2F686561643E0A3C626FE1
:103C000064793E0A3C646976207374796C653D2260
:103C100077696474683A2033333070783B6865693B
:103C20006768743A206175746F3B6D617267696E85
:103C30003A2030206175746F3B6D617267696E2D3B
:103C4000746F703A2037307078223E0A3C68312019
:103C5000616C69676E3D2263656E746572223EC455
:103C60009069E1BB8175206B6869E1BB836E20744C
:103C70006869E1BABF742062E1BB8B207175612075
:103C8000574946493C2F68313E0A093C7461626CD1
:103C90006520616C69676E3D2263656E7465722292
:103CA0003E0A09093C74723E0A0909093C74643EE3
:103CB0003C6120687265663D272F62617431273E42
:103CC0003C627574746F6E20636C6173733D276220
:103CD000273E42E1BAAD7420313C2F627574746F97
:103CE0006E3E3C2F613E3C74643E0A0909093C74F7
:103CF000643E3C6120687265663D272F74617431B3
:103D0000273E3C627574746F6E20636C6173733D03
:103D10002774273E54E1BAAF7420313C2F6275748A
:103D2000746F6E3E3C2F613E3C74643E0A09202055
:103D300020203C74723E0A09202020203C74723EF0
:103D40000A0909093C74643E3C6120687265663D5D
:103D5000272F62617432273E3C627574746F6E2047
:103D6000636C6173733D2762273E42E1BAAD7420F4
:103D7000323C2F627574746F6E3E3C2F613E3C7412
:103D8000643E0A0909093C74643E3C61206872651E
:103D9000663D272F74617432273E3C627574746FE0
:103DA0006E20636C6173733D2774273E54E1BAAF94
:103DB0007420323C2F627574746F6E3E3C2F613EEE
:103DC0003C74643E0A09202020203C74723E0A099B
:103DD000202020203C74723E0A0909093C74643E8C
:103DE0003C6120687265663D272F62617433273E0F
:103DF0003C627574746F6E20636C6173733D2762EF
:103E0000273E42E1BAAD7420333C2F627574746F63
:103E10006E3E3C2F613E3C74643E0A0909093C74C5
:103E2000643E3C6120687265663D272F746174337F
:103E3000273E3C627574746F6E20636C6173733DD2
:103E40002774273E54E1BAAF7420333C2F62757457
:103E5000746F6E3E3C2F613E3C74643E0A09202024
:103E600020203C74723E0A09202020203C74723EBF
:103E70000A0909093C74643E3C6120687265663D2C
:103E8000272F62617434273E3C627574746F6E2014
:103E9000636C6173733D2762273E42E1BAAD7420C3
:103EA000343C2F627574746F6E3E3C2F613E3C74DF
:103EB000643E0A0909093C74643E3C6120687265ED
:103EC000663D272F74617434273E3C627574746FAD
:103ED0006E20636C6173733D2774273E54E1BAAF63
:103EE0007420343C2F627574746F6E3E3C2F613EBB
:103EF0003C74643E0A09202020203C74723E090A6A
:103F0000093C2F7461626C653E0A3C2F6469763E01
:103F10000A3C2F626F64793E0A3C2F68746D6C3ED8
:103F20000000000000000000010203040607080969
:103F30000000000001020304583F000800000020B8
:103F4000600000009C320008B83F000860000020BC
:103F5000C8070000AC3200080000000000000000AC
:103F60000000000000FFFFFFFFFFFFFFFFFFFFC09B
:103F7000A801C600000000000000000000000000D2
:103F80000000000000000000000000000000000031
:103F90000000000001000000000000000000C0A8B8
:103FA00001120000010000001000000000000000ED
:083FB0000024F40000000000F1
:04000005080000ED02
:00000001FF
